{
  "address": "0xCf7Ed3AccA5a467e9e704C703E8D87F634fB0Fc9",
  "abi": [
    {
      "inputs": [
        {
          "internalType": "uint256",
          "name": "initialTokenSupply",
          "type": "uint256"
        },
        {
          "internalType": "uint256",
          "name": "tokenNeededToPlay",
          "type": "uint256"
        },
        {
          "internalType": "address",
          "name": "priceFeed",
          "type": "address"
        }
      ],
      "stateMutability": "nonpayable",
      "type": "constructor"
    },
    {
      "inputs": [],
      "name": "GameContract__AmountTransferFailed",
      "type": "error"
    },
    {
      "inputs": [],
      "name": "GameContract__NoEthSent",
      "type": "error"
    },
    {
      "inputs": [
        {
          "internalType": "address",
          "name": "signer",
          "type": "address"
        }
      ],
      "name": "GameContract__NotEnoughTokens",
      "type": "error"
    },
    {
      "inputs": [],
      "name": "GameContract__PlayerAlreadyExists",
      "type": "error"
    },
    {
      "anonymous": false,
      "inputs": [
        {
          "indexed": true,
          "internalType": "address",
          "name": "signer",
          "type": "address"
        },
        {
          "indexed": true,
          "internalType": "uint256",
          "name": "remainingToken",
          "type": "uint256"
        }
      ],
      "name": "GameStarted",
      "type": "event"
    },
    {
      "anonymous": false,
      "inputs": [
        {
          "indexed": true,
          "internalType": "address",
          "name": "signer",
          "type": "address"
        }
      ],
      "name": "PlayerSigned",
      "type": "event"
    },
    {
      "anonymous": false,
      "inputs": [
        {
          "indexed": true,
          "internalType": "address",
          "name": "signer",
          "type": "address"
        },
        {
          "indexed": true,
          "internalType": "uint256",
          "name": "tokenAmountBought",
          "type": "uint256"
        }
      ],
      "name": "TokenBought",
      "type": "event"
    },
    {
      "anonymous": false,
      "inputs": [
        {
          "indexed": true,
          "internalType": "address[]",
          "name": "winners",
          "type": "address[]"
        },
        {
          "indexed": true,
          "internalType": "uint256[]",
          "name": "prizes",
          "type": "uint256[]"
        }
      ],
      "name": "WinnersPaid",
      "type": "event"
    },
    {
      "inputs": [
        {
          "internalType": "address",
          "name": "signer",
          "type": "address"
        }
      ],
      "name": "burn",
      "outputs": [
        {
          "internalType": "uint256",
          "name": "isApproved",
          "type": "uint256"
        }
      ],
      "stateMutability": "nonpayable",
      "type": "function"
    },
    {
      "inputs": [
        {
          "internalType": "address",
          "name": "signer",
          "type": "address"
        }
      ],
      "name": "buyToken",
      "outputs": [],
      "stateMutability": "payable",
      "type": "function"
    },
    {
      "inputs": [
        {
          "internalType": "address",
          "name": "winner1",
          "type": "address"
        },
        {
          "internalType": "address",
          "name": "winner2",
          "type": "address"
        },
        {
          "internalType": "address",
          "name": "winner3",
          "type": "address"
        }
      ],
      "name": "distributeToken",
      "outputs": [],
      "stateMutability": "payable",
      "type": "function"
    },
    {
      "inputs": [],
      "name": "getInitialTokenGiven",
      "outputs": [
        {
          "internalType": "uint256",
          "name": "amount",
          "type": "uint256"
        }
      ],
      "stateMutability": "view",
      "type": "function"
    },
    {
      "inputs": [],
      "name": "getNumberOfPlayers",
      "outputs": [
        {
          "internalType": "uint256",
          "name": "number",
          "type": "uint256"
        }
      ],
      "stateMutability": "view",
      "type": "function"
    },
    {
      "inputs": [
        {
          "internalType": "address",
          "name": "signer",
          "type": "address"
        }
      ],
      "name": "getPlayerInfo",
      "outputs": [
        {
          "components": [
            {
              "internalType": "uint256",
              "name": "id",
              "type": "uint256"
            },
            {
              "internalType": "uint256",
              "name": "tokenAmount",
              "type": "uint256"
            }
          ],
          "internalType": "struct GameContract.PlayerInfo",
          "name": "playerInfo",
          "type": "tuple"
        }
      ],
      "stateMutability": "view",
      "type": "function"
    },
    {
      "inputs": [],
      "name": "getTokenNeededToPlay",
      "outputs": [
        {
          "internalType": "uint256",
          "name": "amount",
          "type": "uint256"
        }
      ],
      "stateMutability": "view",
      "type": "function"
    },
    {
      "inputs": [
        {
          "internalType": "address",
          "name": "signer",
          "type": "address"
        }
      ],
      "name": "signIn",
      "outputs": [],
      "stateMutability": "nonpayable",
      "type": "function"
    }
  ],
  "transactionHash": "0x9f9810eae5a9fc3daa9e4740d76b13b226a5a62a8c539c536d1ce081f08ae4fe",
  "args": [
    20,
    10,
    "0xe7f1725E7734CE288F8367e1Bb143E90bb3F0512"
  ],
  "numDeployments": 1,
  "solcInputHash": "d906f2a271ea26ff907870d7638cfd27",
  "bytecode": "0x60c06040523480156200001157600080fd5b5060405162001b6938038062001b698339818101604052810190620000379190620001a8565b336000806101000a81548173ffffffffffffffffffffffffffffffffffffffff021916908373ffffffffffffffffffffffffffffffffffffffff16021790555067016345785d8a0000836200008d919062000233565b6080818152505067016345785d8a000082620000aa919062000233565b60a0818152505080600460006101000a81548173ffffffffffffffffffffffffffffffffffffffff021916908373ffffffffffffffffffffffffffffffffffffffff160217905550600060018190555050505062000294565b600080fd5b6000819050919050565b6200011d8162000108565b81146200012957600080fd5b50565b6000815190506200013d8162000112565b92915050565b600073ffffffffffffffffffffffffffffffffffffffff82169050919050565b6000620001708262000143565b9050919050565b620001828162000163565b81146200018e57600080fd5b50565b600081519050620001a28162000177565b92915050565b600080600060608486031215620001c457620001c362000103565b5b6000620001d4868287016200012c565b9350506020620001e7868287016200012c565b9250506040620001fa8682870162000191565b9150509250925092565b7f4e487b7100000000000000000000000000000000000000000000000000000000600052601160045260246000fd5b6000620002408262000108565b91506200024d8362000108565b9250817fffffffffffffffffffffffffffffffffffffffffffffffffffffffffffffffff048311821515161562000289576200028862000204565b5b828202905092915050565b60805160a05161189a620002cf600039600081816101e00152818161096701528181610aa20152610b340152600061070a015261189a6000f3fe60806040526004361061007b5760003560e01c80637e72fb521161004e5780637e72fb521461012f57806389afcb441461014b5780638fa9e55c14610188578063fd6673f5146101b15761007b565b80630237ba5514610080578063116e0ed0146100ab57806359328401146100c7578063759902b314610104575b600080fd5b34801561008c57600080fd5b506100956101dc565b6040516100a29190610fcd565b60405180910390f35b6100c560048036038101906100c0919061104b565b610204565b005b3480156100d357600080fd5b506100ee60048036038101906100e9919061109e565b610699565b6040516100fb9190611109565b60405180910390f35b34801561011057600080fd5b50610119610706565b6040516101269190610fcd565b60405180910390f35b6101496004803603810190610144919061109e565b61072e565b005b34801561015757600080fd5b50610172600480360381019061016d919061109e565b610963565b60405161017f9190610fcd565b60405180910390f35b34801561019457600080fd5b506101af60048036038101906101aa919061109e565b610c76565b005b3480156101bd57600080fd5b506101c6610eb4565b6040516101d39190610fcd565b60405180910390f35b60007f0000000000000000000000000000000000000000000000000000000000000000905090565b60004790506000600560048361021a9190611153565b61022491906111dc565b905060008183610234919061120d565b9050600060028361024591906111dc565b90506000600a6003856102589190611153565b61026291906111dc565b90506000818386610273919061120d565b61027d919061120d565b90506000600367ffffffffffffffff81111561029c5761029b611241565b5b6040519080825280602002602001820160405280156102ca5781602001602082028036833780820191505090505b50905089816000815181106102e2576102e1611270565b5b602002602001019073ffffffffffffffffffffffffffffffffffffffff16908173ffffffffffffffffffffffffffffffffffffffff1681525050888160018151811061033157610330611270565b5b602002602001019073ffffffffffffffffffffffffffffffffffffffff16908173ffffffffffffffffffffffffffffffffffffffff168152505087816002815181106103805761037f611270565b5b602002602001019073ffffffffffffffffffffffffffffffffffffffff16908173ffffffffffffffffffffffffffffffffffffffff16815250506000600367ffffffffffffffff8111156103d7576103d6611241565b5b6040519080825280602002602001820160405280156104055781602001602082028036833780820191505090505b509050848160008151811061041d5761041c611270565b5b602002602001018181525050838160018151811061043e5761043d611270565b5b602002602001018181525050828160028151811061045f5761045e611270565b5b60200260200101818152505060005b60038161ffff16101561056e576000838261ffff168151811061049457610493611270565b5b602002602001015173ffffffffffffffffffffffffffffffffffffffff16838361ffff16815181106104c9576104c8611270565b5b60200260200101516040516104dd906112d0565b60006040518083038185875af1925050503d806000811461051a576040519150601f19603f3d011682016040523d82523d6000602084013e61051f565b606091505b505090508061055a576040517fec6ee13400000000000000000000000000000000000000000000000000000000815260040160405180910390fd5b508080610566906112f3565b91505061046e565b5060008060009054906101000a900473ffffffffffffffffffffffffffffffffffffffff1673ffffffffffffffffffffffffffffffffffffffff16876040516105b6906112d0565b60006040518083038185875af1925050503d80600081146105f3576040519150601f19603f3d011682016040523d82523d6000602084013e6105f8565b606091505b5050905080610633576040517fec6ee13400000000000000000000000000000000000000000000000000000000815260040160405180910390fd5b8160405161064191906113d6565b60405180910390208360405161065791906114a5565b60405180910390207f18b194209306069cd3a82dcfb3a1247daf22356964d1aa7472228b1890a1cd9460405160405180910390a3505050505050505050505050565b6106a1610f9a565b600260008373ffffffffffffffffffffffffffffffffffffffff1673ffffffffffffffffffffffffffffffffffffffff168152602001908152602001600020604051806040016040529081600082015481526020016001820154815250509050919050565b60007f0000000000000000000000000000000000000000000000000000000000000000905090565b600067016345785d8a000061076e600460009054906101000a900473ffffffffffffffffffffffffffffffffffffffff1634610ebe90919063ffffffff16565b6107789190611153565b905060008114156107b5576040517ff9052c2800000000000000000000000000000000000000000000000000000000815260040160405180910390fd5b600360009054906101000a900473ffffffffffffffffffffffffffffffffffffffff1673ffffffffffffffffffffffffffffffffffffffff166323b872dd60008054906101000a900473ffffffffffffffffffffffffffffffffffffffff1684846040518463ffffffff1660e01b8152600401610834939291906114cb565b602060405180830381600087803b15801561084e57600080fd5b505af1158015610862573d6000803e3d6000fd5b505050506040513d601f19601f82011682018060405250810190610886919061153a565b5080600260008473ffffffffffffffffffffffffffffffffffffffff1673ffffffffffffffffffffffffffffffffffffffff168152602001908152602001600020600101546108d59190611567565b600260008473ffffffffffffffffffffffffffffffffffffffff1673ffffffffffffffffffffffffffffffffffffffff16815260200190815260200160002060010181905550808273ffffffffffffffffffffffffffffffffffffffff167fa3a187cfc249a33f6c4046e8d418886eea8564f9dd214a32aa5ba08d9602b54360405160405180910390a35050565b60007f0000000000000000000000000000000000000000000000000000000000000000600360009054906101000a900473ffffffffffffffffffffffffffffffffffffffff1673ffffffffffffffffffffffffffffffffffffffff166370a08231846040518263ffffffff1660e01b81526004016109e191906115bd565b60206040518083038186803b1580156109f957600080fd5b505afa158015610a0d573d6000803e3d6000fd5b505050506040513d601f19601f82011682018060405250810190610a319190611604565b1015610a405760009050610c71565b600360009054906101000a900473ffffffffffffffffffffffffffffffffffffffff1673ffffffffffffffffffffffffffffffffffffffff166323b872dd8360008054906101000a900473ffffffffffffffffffffffffffffffffffffffff167f00000000000000000000000000000000000000000000000000000000000000006040518463ffffffff1660e01b8152600401610adf939291906114cb565b602060405180830381600087803b158015610af957600080fd5b505af1158015610b0d573d6000803e3d6000fd5b505050506040513d601f19601f82011682018060405250810190610b31919061153a565b507f0000000000000000000000000000000000000000000000000000000000000000600260008473ffffffffffffffffffffffffffffffffffffffff1673ffffffffffffffffffffffffffffffffffffffff16815260200190815260200160002060010154610ba0919061120d565b600260008473ffffffffffffffffffffffffffffffffffffffff1673ffffffffffffffffffffffffffffffffffffffff16815260200190815260200160002060010181905550600260008373ffffffffffffffffffffffffffffffffffffffff1673ffffffffffffffffffffffffffffffffffffffff168152602001908152602001600020600101548273ffffffffffffffffffffffffffffffffffffffff167fea32a03505fd9f04d664676d72295a86c5fb0465e69654751907ca305bc1d1c760405160405180910390a3600190505b919050565b6000600260008373ffffffffffffffffffffffffffffffffffffffff1673ffffffffffffffffffffffffffffffffffffffff168152602001908152602001600020600001541115610cf3576040517fa205a4ab00000000000000000000000000000000000000000000000000000000815260040160405180910390fd5b600360009054906101000a900473ffffffffffffffffffffffffffffffffffffffff1673ffffffffffffffffffffffffffffffffffffffff1663a9059cbb8267016345785d8a00006014610d479190611153565b6040518363ffffffff1660e01b8152600401610d64929190611631565b602060405180830381600087803b158015610d7e57600080fd5b505af1158015610d92573d6000803e3d6000fd5b505050506040513d601f19601f82011682018060405250810190610db6919061153a565b5067016345785d8a00006014610dcc9190611153565b600260008373ffffffffffffffffffffffffffffffffffffffff1673ffffffffffffffffffffffffffffffffffffffff168152602001908152602001600020600101819055506001600260008373ffffffffffffffffffffffffffffffffffffffff1673ffffffffffffffffffffffffffffffffffffffff1681526020019081526020016000206000018190555060018054610e689190611567565b6001819055508073ffffffffffffffffffffffffffffffffffffffff167f0683c91d12e87a4e9be109923784c91cdbb73d731c9ea59b44ed91e76bbad39660405160405180910390a250565b6000600154905090565b600080610eca83610efa565b90506000670de0b6b3a76400008583610ee39190611153565b610eed91906111dc565b9050809250505092915050565b6000808273ffffffffffffffffffffffffffffffffffffffff1663feaf968c6040518163ffffffff1660e01b815260040160a06040518083038186803b158015610f4357600080fd5b505afa158015610f57573d6000803e3d6000fd5b505050506040513d601f19601f82011682018060405250810190610f7b91906116d2565b5050509150506402540be40081610f92919061174d565b915050919050565b604051806040016040528060008152602001600081525090565b6000819050919050565b610fc781610fb4565b82525050565b6000602082019050610fe26000830184610fbe565b92915050565b600080fd5b600073ffffffffffffffffffffffffffffffffffffffff82169050919050565b600061101882610fed565b9050919050565b6110288161100d565b811461103357600080fd5b50565b6000813590506110458161101f565b92915050565b60008060006060848603121561106457611063610fe8565b5b600061107286828701611036565b935050602061108386828701611036565b925050604061109486828701611036565b9150509250925092565b6000602082840312156110b4576110b3610fe8565b5b60006110c284828501611036565b91505092915050565b6110d481610fb4565b82525050565b6040820160008201516110f060008501826110cb565b50602082015161110360208501826110cb565b50505050565b600060408201905061111e60008301846110da565b92915050565b7f4e487b7100000000000000000000000000000000000000000000000000000000600052601160045260246000fd5b600061115e82610fb4565b915061116983610fb4565b9250817fffffffffffffffffffffffffffffffffffffffffffffffffffffffffffffffff04831182151516156111a2576111a1611124565b5b828202905092915050565b7f4e487b7100000000000000000000000000000000000000000000000000000000600052601260045260246000fd5b60006111e782610fb4565b91506111f283610fb4565b925082611202576112016111ad565b5b828204905092915050565b600061121882610fb4565b915061122383610fb4565b92508282101561123657611235611124565b5b828203905092915050565b7f4e487b7100000000000000000000000000000000000000000000000000000000600052604160045260246000fd5b7f4e487b7100000000000000000000000000000000000000000000000000000000600052603260045260246000fd5b600081905092915050565b50565b60006112ba60008361129f565b91506112c5826112aa565b600082019050919050565b60006112db826112ad565b9150819050919050565b600061ffff82169050919050565b60006112fe826112e5565b915061ffff82141561131357611312611124565b5b600182019050919050565b600081519050919050565b600081905092915050565b6000819050602082019050919050565b61134d81610fb4565b82525050565b600061135f8383611344565b60208301905092915050565b6000602082019050919050565b60006113838261131e565b61138d8185611329565b935061139883611334565b8060005b838110156113c95781516113b08882611353565b97506113bb8361136b565b92505060018101905061139c565b5085935050505092915050565b60006113e28284611378565b915081905092915050565b600081519050919050565b600081905092915050565b6000819050602082019050919050565b61141c8161100d565b82525050565b600061142e8383611413565b60208301905092915050565b6000602082019050919050565b6000611452826113ed565b61145c81856113f8565b935061146783611403565b8060005b8381101561149857815161147f8882611422565b975061148a8361143a565b92505060018101905061146b565b5085935050505092915050565b60006114b18284611447565b915081905092915050565b6114c58161100d565b82525050565b60006060820190506114e060008301866114bc565b6114ed60208301856114bc565b6114fa6040830184610fbe565b949350505050565b60008115159050919050565b61151781611502565b811461152257600080fd5b50565b6000815190506115348161150e565b92915050565b6000602082840312156115505761154f610fe8565b5b600061155e84828501611525565b91505092915050565b600061157282610fb4565b915061157d83610fb4565b9250827fffffffffffffffffffffffffffffffffffffffffffffffffffffffffffffffff038211156115b2576115b1611124565b5b828201905092915050565b60006020820190506115d260008301846114bc565b92915050565b6115e181610fb4565b81146115ec57600080fd5b50565b6000815190506115fe816115d8565b92915050565b60006020828403121561161a57611619610fe8565b5b6000611628848285016115ef565b91505092915050565b600060408201905061164660008301856114bc565b6116536020830184610fbe565b9392505050565b600069ffffffffffffffffffff82169050919050565b6116798161165a565b811461168457600080fd5b50565b60008151905061169681611670565b92915050565b6000819050919050565b6116af8161169c565b81146116ba57600080fd5b50565b6000815190506116cc816116a6565b92915050565b600080600080600060a086880312156116ee576116ed610fe8565b5b60006116fc88828901611687565b955050602061170d888289016116bd565b945050604061171e888289016115ef565b935050606061172f888289016115ef565b925050608061174088828901611687565b9150509295509295909350565b60006117588261169c565b91506117638361169c565b9250827f7fffffffffffffffffffffffffffffffffffffffffffffffffffffffffffffff04821160008413600084131616156117a2576117a1611124565b5b817f800000000000000000000000000000000000000000000000000000000000000005831260008412600084131616156117df576117de611124565b5b827f8000000000000000000000000000000000000000000000000000000000000000058212600084136000841216161561181c5761181b611124565b5b827f7fffffffffffffffffffffffffffffffffffffffffffffffffffffffffffffff058212600084126000841216161561185957611858611124565b5b82820290509291505056fea26469706673582212206e2ed64d16c6d493616d2233e3eaf79ddd54d79f1178e25bbfb1c14647abe04a64736f6c63430008090033",
  "devdoc": {
    "kind": "dev",
    "methods": {},
    "version": 1
  },
  "userdoc": {
    "kind": "user",
    "methods": {},
    "version": 1
  },
  "storageLayout": {
    "storage": [
      {
        "astId": 4012,
        "contract": "contracts/GameContract.sol:GameContract",
        "label": "s_owner",
        "offset": 0,
        "slot": "0",
        "type": "t_address"
      },
      {
        "astId": 4014,
        "contract": "contracts/GameContract.sol:GameContract",
        "label": "s_numberOfPlayers",
        "offset": 0,
        "slot": "1",
        "type": "t_uint256"
      },
      {
        "astId": 4019,
        "contract": "contracts/GameContract.sol:GameContract",
        "label": "s_addressToToken",
        "offset": 0,
        "slot": "2",
        "type": "t_mapping(t_address,t_struct(PlayerInfo)4007_storage)"
      },
      {
        "astId": 4022,
        "contract": "contracts/GameContract.sol:GameContract",
        "label": "s_token",
        "offset": 0,
        "slot": "3",
        "type": "t_contract(MiraiToken)4723"
      },
      {
        "astId": 4029,
        "contract": "contracts/GameContract.sol:GameContract",
        "label": "s_priceFeed",
        "offset": 0,
        "slot": "4",
        "type": "t_contract(AggregatorV3Interface)160"
      }
    ],
    "types": {
      "t_address": {
        "encoding": "inplace",
        "label": "address",
        "numberOfBytes": "20"
      },
      "t_contract(AggregatorV3Interface)160": {
        "encoding": "inplace",
        "label": "contract AggregatorV3Interface",
        "numberOfBytes": "20"
      },
      "t_contract(MiraiToken)4723": {
        "encoding": "inplace",
        "label": "contract MiraiToken",
        "numberOfBytes": "20"
      },
      "t_mapping(t_address,t_struct(PlayerInfo)4007_storage)": {
        "encoding": "mapping",
        "key": "t_address",
        "label": "mapping(address => struct GameContract.PlayerInfo)",
        "numberOfBytes": "32",
        "value": "t_struct(PlayerInfo)4007_storage"
      },
      "t_struct(PlayerInfo)4007_storage": {
        "encoding": "inplace",
        "label": "struct GameContract.PlayerInfo",
        "members": [
          {
            "astId": 4004,
            "contract": "contracts/GameContract.sol:GameContract",
            "label": "id",
            "offset": 0,
            "slot": "0",
            "type": "t_uint256"
          },
          {
            "astId": 4006,
            "contract": "contracts/GameContract.sol:GameContract",
            "label": "tokenAmount",
            "offset": 0,
            "slot": "1",
            "type": "t_uint256"
          }
        ],
        "numberOfBytes": "64"
      },
      "t_uint256": {
        "encoding": "inplace",
        "label": "uint256",
        "numberOfBytes": "32"
      }
    }
  }
}