{
  "address": "0x5FC8d32690cc91D4c39d9d3abcBD16989F875707",
  "abi": [
    {
      "inputs": [
        {
          "internalType": "address",
          "name": "vrfCoordinatorV2Address",
          "type": "address"
        },
        {
          "internalType": "uint64",
          "name": "subscriptionId",
          "type": "uint64"
        },
        {
          "internalType": "bytes32",
          "name": "gasLane",
          "type": "bytes32"
        },
        {
          "internalType": "uint32",
          "name": "callbackGasLimit",
          "type": "uint32"
        },
        {
          "internalType": "uint16",
          "name": "maxNFT",
          "type": "uint16"
        },
        {
          "internalType": "string[3]",
          "name": "charTokenURIs",
          "type": "string[3]"
        }
      ],
      "stateMutability": "nonpayable",
      "type": "constructor"
    },
    {
      "inputs": [],
      "name": "IpfsNFT__NeedMoreEthSent",
      "type": "error"
    },
    {
      "inputs": [],
      "name": "IpfsNFT__RangeOutOfBounds",
      "type": "error"
    },
    {
      "inputs": [],
      "name": "IpfsNFT__TransferFailed",
      "type": "error"
    },
    {
      "inputs": [
        {
          "internalType": "address",
          "name": "have",
          "type": "address"
        },
        {
          "internalType": "address",
          "name": "want",
          "type": "address"
        }
      ],
      "name": "OnlyCoordinatorCanFulfill",
      "type": "error"
    },
    {
      "anonymous": false,
      "inputs": [
        {
          "indexed": true,
          "internalType": "address",
          "name": "owner",
          "type": "address"
        },
        {
          "indexed": true,
          "internalType": "address",
          "name": "approved",
          "type": "address"
        },
        {
          "indexed": true,
          "internalType": "uint256",
          "name": "tokenId",
          "type": "uint256"
        }
      ],
      "name": "Approval",
      "type": "event"
    },
    {
      "anonymous": false,
      "inputs": [
        {
          "indexed": true,
          "internalType": "address",
          "name": "owner",
          "type": "address"
        },
        {
          "indexed": true,
          "internalType": "address",
          "name": "operator",
          "type": "address"
        },
        {
          "indexed": false,
          "internalType": "bool",
          "name": "approved",
          "type": "bool"
        }
      ],
      "name": "ApprovalForAll",
      "type": "event"
    },
    {
      "anonymous": false,
      "inputs": [
        {
          "indexed": true,
          "internalType": "address",
          "name": "minter",
          "type": "address"
        }
      ],
      "name": "Nft_Minted",
      "type": "event"
    },
    {
      "anonymous": false,
      "inputs": [
        {
          "indexed": true,
          "internalType": "uint256",
          "name": "tokenId",
          "type": "uint256"
        },
        {
          "indexed": true,
          "internalType": "address",
          "name": "requester",
          "type": "address"
        }
      ],
      "name": "Nft_Requested",
      "type": "event"
    },
    {
      "anonymous": false,
      "inputs": [
        {
          "indexed": true,
          "internalType": "address",
          "name": "previousOwner",
          "type": "address"
        },
        {
          "indexed": true,
          "internalType": "address",
          "name": "newOwner",
          "type": "address"
        }
      ],
      "name": "OwnershipTransferred",
      "type": "event"
    },
    {
      "anonymous": false,
      "inputs": [
        {
          "indexed": true,
          "internalType": "address",
          "name": "from",
          "type": "address"
        },
        {
          "indexed": true,
          "internalType": "address",
          "name": "to",
          "type": "address"
        },
        {
          "indexed": true,
          "internalType": "uint256",
          "name": "tokenId",
          "type": "uint256"
        }
      ],
      "name": "Transfer",
      "type": "event"
    },
    {
      "inputs": [
        {
          "internalType": "address",
          "name": "to",
          "type": "address"
        },
        {
          "internalType": "uint256",
          "name": "tokenId",
          "type": "uint256"
        }
      ],
      "name": "approve",
      "outputs": [],
      "stateMutability": "nonpayable",
      "type": "function"
    },
    {
      "inputs": [
        {
          "internalType": "address",
          "name": "owner",
          "type": "address"
        }
      ],
      "name": "balanceOf",
      "outputs": [
        {
          "internalType": "uint256",
          "name": "",
          "type": "uint256"
        }
      ],
      "stateMutability": "view",
      "type": "function"
    },
    {
      "inputs": [
        {
          "internalType": "uint256",
          "name": "tokenId",
          "type": "uint256"
        }
      ],
      "name": "getApproved",
      "outputs": [
        {
          "internalType": "address",
          "name": "",
          "type": "address"
        }
      ],
      "stateMutability": "view",
      "type": "function"
    },
    {
      "inputs": [],
      "name": "getInitialized",
      "outputs": [
        {
          "internalType": "bool",
          "name": "",
          "type": "bool"
        }
      ],
      "stateMutability": "view",
      "type": "function"
    },
    {
      "inputs": [],
      "name": "getTokenCounter",
      "outputs": [
        {
          "internalType": "uint256",
          "name": "",
          "type": "uint256"
        }
      ],
      "stateMutability": "view",
      "type": "function"
    },
    {
      "inputs": [
        {
          "internalType": "uint256",
          "name": "index",
          "type": "uint256"
        }
      ],
      "name": "getTokenUris",
      "outputs": [
        {
          "internalType": "string",
          "name": "",
          "type": "string"
        }
      ],
      "stateMutability": "view",
      "type": "function"
    },
    {
      "inputs": [
        {
          "internalType": "address",
          "name": "owner",
          "type": "address"
        },
        {
          "internalType": "address",
          "name": "operator",
          "type": "address"
        }
      ],
      "name": "isApprovedForAll",
      "outputs": [
        {
          "internalType": "bool",
          "name": "",
          "type": "bool"
        }
      ],
      "stateMutability": "view",
      "type": "function"
    },
    {
      "inputs": [],
      "name": "name",
      "outputs": [
        {
          "internalType": "string",
          "name": "",
          "type": "string"
        }
      ],
      "stateMutability": "view",
      "type": "function"
    },
    {
      "inputs": [],
      "name": "owner",
      "outputs": [
        {
          "internalType": "address",
          "name": "",
          "type": "address"
        }
      ],
      "stateMutability": "view",
      "type": "function"
    },
    {
      "inputs": [
        {
          "internalType": "uint256",
          "name": "tokenId",
          "type": "uint256"
        }
      ],
      "name": "ownerOf",
      "outputs": [
        {
          "internalType": "address",
          "name": "",
          "type": "address"
        }
      ],
      "stateMutability": "view",
      "type": "function"
    },
    {
      "inputs": [
        {
          "internalType": "uint256",
          "name": "requestId",
          "type": "uint256"
        },
        {
          "internalType": "uint256[]",
          "name": "randomWords",
          "type": "uint256[]"
        }
      ],
      "name": "rawFulfillRandomWords",
      "outputs": [],
      "stateMutability": "nonpayable",
      "type": "function"
    },
    {
      "inputs": [],
      "name": "renounceOwnership",
      "outputs": [],
      "stateMutability": "nonpayable",
      "type": "function"
    },
    {
      "inputs": [],
      "name": "requestNft",
      "outputs": [
        {
          "internalType": "uint256",
          "name": "requestId",
          "type": "uint256"
        }
      ],
      "stateMutability": "nonpayable",
      "type": "function"
    },
    {
      "inputs": [
        {
          "internalType": "address",
          "name": "from",
          "type": "address"
        },
        {
          "internalType": "address",
          "name": "to",
          "type": "address"
        },
        {
          "internalType": "uint256",
          "name": "tokenId",
          "type": "uint256"
        }
      ],
      "name": "safeTransferFrom",
      "outputs": [],
      "stateMutability": "nonpayable",
      "type": "function"
    },
    {
      "inputs": [
        {
          "internalType": "address",
          "name": "from",
          "type": "address"
        },
        {
          "internalType": "address",
          "name": "to",
          "type": "address"
        },
        {
          "internalType": "uint256",
          "name": "tokenId",
          "type": "uint256"
        },
        {
          "internalType": "bytes",
          "name": "data",
          "type": "bytes"
        }
      ],
      "name": "safeTransferFrom",
      "outputs": [],
      "stateMutability": "nonpayable",
      "type": "function"
    },
    {
      "inputs": [
        {
          "internalType": "address",
          "name": "operator",
          "type": "address"
        },
        {
          "internalType": "bool",
          "name": "approved",
          "type": "bool"
        }
      ],
      "name": "setApprovalForAll",
      "outputs": [],
      "stateMutability": "nonpayable",
      "type": "function"
    },
    {
      "inputs": [
        {
          "internalType": "bytes4",
          "name": "interfaceId",
          "type": "bytes4"
        }
      ],
      "name": "supportsInterface",
      "outputs": [
        {
          "internalType": "bool",
          "name": "",
          "type": "bool"
        }
      ],
      "stateMutability": "view",
      "type": "function"
    },
    {
      "inputs": [],
      "name": "symbol",
      "outputs": [
        {
          "internalType": "string",
          "name": "",
          "type": "string"
        }
      ],
      "stateMutability": "view",
      "type": "function"
    },
    {
      "inputs": [
        {
          "internalType": "uint256",
          "name": "tokenId",
          "type": "uint256"
        }
      ],
      "name": "tokenURI",
      "outputs": [
        {
          "internalType": "string",
          "name": "",
          "type": "string"
        }
      ],
      "stateMutability": "view",
      "type": "function"
    },
    {
      "inputs": [
        {
          "internalType": "address",
          "name": "from",
          "type": "address"
        },
        {
          "internalType": "address",
          "name": "to",
          "type": "address"
        },
        {
          "internalType": "uint256",
          "name": "tokenId",
          "type": "uint256"
        }
      ],
      "name": "transferFrom",
      "outputs": [],
      "stateMutability": "nonpayable",
      "type": "function"
    },
    {
      "inputs": [
        {
          "internalType": "address",
          "name": "newOwner",
          "type": "address"
        }
      ],
      "name": "transferOwnership",
      "outputs": [],
      "stateMutability": "nonpayable",
      "type": "function"
    }
  ],
  "transactionHash": "0x3729d4b0d256d35a7ce30436e582d49b8ac00dffe5df467ee259bcc006994e57",
  "args": [
    "0x5FbDB2315678afecb367f032d93F642f64180aa3",
    "1",
    "0xd89b2bf150e3b9e13446986e571fb9cab24b13cea0a43ea20a6049a85cc807cc",
    "100000",
    "72",
    [
      "https://ipfs.io/ipfs/QmcmUUQ1KPWtdzKJTaFFg5Y56wxWZRMiC1dapysW6grRe7",
      "https://ipfs.io/ipfs/QmcmUUQ1KPWtdzKJTaFFg5Y56wxWZRMiC1dapysW6grRe7",
      "https://ipfs.io/ipfs/QmcmUUQ1KPWtdzKJTaFFg5Y56wxWZRMiC1dapysW6grRe7"
    ]
  ],
  "numDeployments": 1,
  "solcInputHash": "52a239e17485f0e9126ef5d74afb2da2",
  "bytecode": "0x6101406040526000600760146101000a81548160ff0219169083151502179055503480156200002d57600080fd5b5060405162003cde38038062003cde833981810160405281019062000053919062000849565b6040518060400160405280600d81526020017f4d6f626952616e646f6d4e4654000000000000000000000000000000000000008152506040518060400160405280600381526020017f4d524e0000000000000000000000000000000000000000000000000000000000815250878073ffffffffffffffffffffffffffffffffffffffff1660808173ffffffffffffffffffffffffffffffffffffffff16815250505081600090805190602001906200010d929190620002d8565b50806001908051906020019062000126929190620002d8565b505050620001496200013d6200020a60201b60201c565b6200021260201b60201c565b8573ffffffffffffffffffffffffffffffffffffffff1660a08173ffffffffffffffffffffffffffffffffffffffff16815250508467ffffffffffffffff1660c08167ffffffffffffffff16815250508263ffffffff166101008163ffffffff16815250508360e081815250508161ffff166101208161ffff16815250506000600a81905550806008906003620001e292919062000369565b506001600760146101000a81548160ff02191690831515021790555050505050505062000969565b600033905090565b6000600760009054906101000a900473ffffffffffffffffffffffffffffffffffffffff16905081600760006101000a81548173ffffffffffffffffffffffffffffffffffffffff021916908373ffffffffffffffffffffffffffffffffffffffff1602179055508173ffffffffffffffffffffffffffffffffffffffff168173ffffffffffffffffffffffffffffffffffffffff167f8be0079c531659141344cd1fd0a4f28419497f9722a3daafe3b4186f6b6457e060405160405180910390a35050565b828054620002e69062000933565b90600052602060002090601f0160209004810192826200030a576000855562000356565b82601f106200032557805160ff191683800117855562000356565b8280016001018555821562000356579182015b828111156200035557825182559160200191906001019062000338565b5b509050620003659190620003d0565b5090565b828054828255906000526020600020908101928215620003bd579160200282015b82811115620003bc578251829080519060200190620003ab929190620002d8565b50916020019190600101906200038a565b5b509050620003cc9190620003ef565b5090565b5b80821115620003eb576000816000905550600101620003d1565b5090565b5b8082111562000413576000818162000409919062000417565b50600101620003f0565b5090565b508054620004259062000933565b6000825580601f106200043957506200045a565b601f016020900490600052602060002090810190620004599190620003d0565b5b50565b6000604051905090565b600080fd5b600080fd5b600073ffffffffffffffffffffffffffffffffffffffff82169050919050565b60006200049e8262000471565b9050919050565b620004b08162000491565b8114620004bc57600080fd5b50565b600081519050620004d081620004a5565b92915050565b600067ffffffffffffffff82169050919050565b620004f581620004d6565b81146200050157600080fd5b50565b6000815190506200051581620004ea565b92915050565b6000819050919050565b62000530816200051b565b81146200053c57600080fd5b50565b600081519050620005508162000525565b92915050565b600063ffffffff82169050919050565b620005718162000556565b81146200057d57600080fd5b50565b600081519050620005918162000566565b92915050565b600061ffff82169050919050565b620005b08162000597565b8114620005bc57600080fd5b50565b600081519050620005d081620005a5565b92915050565b600080fd5b6000601f19601f8301169050919050565b7f4e487b7100000000000000000000000000000000000000000000000000000000600052604160045260246000fd5b6200062682620005db565b810181811067ffffffffffffffff82111715620006485762000647620005ec565b5b80604052505050565b60006200065d6200045d565b90506200066b82826200061b565b919050565b600067ffffffffffffffff8211156200068e576200068d620005ec565b5b602082029050919050565b600080fd5b600080fd5b600067ffffffffffffffff821115620006c157620006c0620005ec565b5b620006cc82620005db565b9050602081019050919050565b60005b83811015620006f9578082015181840152602081019050620006dc565b8381111562000709576000848401525b50505050565b6000620007266200072084620006a3565b62000651565b9050828152602081018484840111156200074557620007446200069e565b5b62000752848285620006d9565b509392505050565b600082601f830112620007725762000771620005d6565b5b8151620007848482602086016200070f565b91505092915050565b6000620007a46200079e8462000670565b62000651565b90508060208402830185811115620007c157620007c062000699565b5b835b818110156200080f57805167ffffffffffffffff811115620007ea57620007e9620005d6565b5b808601620007f989826200075a565b85526020850194505050602081019050620007c3565b5050509392505050565b600082601f830112620008315762000830620005d6565b5b6003620008408482856200078d565b91505092915050565b60008060008060008060c0878903121562000869576200086862000467565b5b60006200087989828a01620004bf565b96505060206200088c89828a0162000504565b95505060406200089f89828a016200053f565b9450506060620008b289828a0162000580565b9350506080620008c589828a01620005bf565b92505060a087015167ffffffffffffffff811115620008e957620008e86200046c565b5b620008f789828a0162000819565b9150509295509295509295565b7f4e487b7100000000000000000000000000000000000000000000000000000000600052602260045260246000fd5b600060028204905060018216806200094c57607f821691505b6020821081141562000963576200096262000904565b5b50919050565b60805160a05160c05160e051610100516101205161331e620009c0600039600061114001526000610bb401526000610b7001526000610b9101526000610b3401526000818161079201526107e6015261331e6000f3fe608060405234801561001057600080fd5b50600436106101375760003560e01c806370a08231116100b8578063aa1524911161007c578063aa1524911461033a578063b88d4fde14610358578063c87b56dd14610374578063e985e9c5146103a4578063ee89dab4146103d4578063f2fde38b146103f257610137565b806370a08231146102a8578063715018a6146102d85780638da5cb5b146102e257806395d89b4114610300578063a22cb4651461031e57610137565b80631fe543e3116100ff5780631fe543e31461020657806323b872dd1461022257806342842e0e1461023e5780636352211e1461025a5780636e02007d1461028a57610137565b806301ffc9a71461013c57806306fdde031461016c578063071976651461018a578063081812fc146101ba578063095ea7b3146101ea575b600080fd5b61015660048036038101906101519190612093565b61040e565b60405161016391906120db565b60405180910390f35b6101746104f0565b604051610181919061218f565b60405180910390f35b6101a4600480360381019061019f91906121e7565b610582565b6040516101b1919061218f565b60405180910390f35b6101d460048036038101906101cf91906121e7565b610632565b6040516101e19190612255565b60405180910390f35b61020460048036038101906101ff919061229c565b610678565b005b610220600480360381019061021b9190612424565b610790565b005b61023c60048036038101906102379190612480565b610850565b005b61025860048036038101906102539190612480565b6108b0565b005b610274600480360381019061026f91906121e7565b6108d0565b6040516102819190612255565b60405180910390f35b610292610982565b60405161029f91906124e2565b60405180910390f35b6102c260048036038101906102bd91906124fd565b61098c565b6040516102cf91906124e2565b60405180910390f35b6102e0610a44565b005b6102ea610a58565b6040516102f79190612255565b60405180910390f35b610308610a82565b604051610315919061218f565b60405180910390f35b61033860048036038101906103339190612556565b610b14565b005b610342610b2a565b60405161034f91906124e2565b60405180910390f35b610372600480360381019061036d919061264b565b610ce3565b005b61038e600480360381019061038991906121e7565b610d45565b60405161039b919061218f565b60405180910390f35b6103be60048036038101906103b991906126ce565b610e58565b6040516103cb91906120db565b60405180910390f35b6103dc610eec565b6040516103e991906120db565b60405180910390f35b61040c600480360381019061040791906124fd565b610f03565b005b60007f80ac58cd000000000000000000000000000000000000000000000000000000007bffffffffffffffffffffffffffffffffffffffffffffffffffffffff1916827bffffffffffffffffffffffffffffffffffffffffffffffffffffffff191614806104d957507f5b5e139f000000000000000000000000000000000000000000000000000000007bffffffffffffffffffffffffffffffffffffffffffffffffffffffff1916827bffffffffffffffffffffffffffffffffffffffffffffffffffffffff1916145b806104e957506104e882610f87565b5b9050919050565b6060600080546104ff9061273d565b80601f016020809104026020016040519081016040528092919081815260200182805461052b9061273d565b80156105785780601f1061054d57610100808354040283529160200191610578565b820191906000526020600020905b81548152906001019060200180831161055b57829003601f168201915b5050505050905090565b6060600882815481106105985761059761276f565b5b9060005260206000200180546105ad9061273d565b80601f01602080910402602001604051908101604052809291908181526020018280546105d99061273d565b80156106265780601f106105fb57610100808354040283529160200191610626565b820191906000526020600020905b81548152906001019060200180831161060957829003601f168201915b50505050509050919050565b600061063d82610ff1565b6004600083815260200190815260200160002060009054906101000a900473ffffffffffffffffffffffffffffffffffffffff169050919050565b6000610683826108d0565b90508073ffffffffffffffffffffffffffffffffffffffff168373ffffffffffffffffffffffffffffffffffffffff1614156106f4576040517f08c379a00000000000000000000000000000000000000000000000000000000081526004016106eb90612810565b60405180910390fd5b8073ffffffffffffffffffffffffffffffffffffffff1661071361103c565b73ffffffffffffffffffffffffffffffffffffffff16148061074257506107418161073c61103c565b610e58565b5b610781576040517f08c379a0000000000000000000000000000000000000000000000000000000008152600401610778906128a2565b60405180910390fd5b61078b8383611044565b505050565b7f000000000000000000000000000000000000000000000000000000000000000073ffffffffffffffffffffffffffffffffffffffff163373ffffffffffffffffffffffffffffffffffffffff161461084257337f00000000000000000000000000000000000000000000000000000000000000006040517f1cf993f40000000000000000000000000000000000000000000000000000000081526004016108399291906128c2565b60405180910390fd5b61084c82826110fd565b5050565b61086161085b61103c565b826112a4565b6108a0576040517f08c379a00000000000000000000000000000000000000000000000000000000081526004016108979061295d565b60405180910390fd5b6108ab838383611339565b505050565b6108cb83838360405180602001604052806000815250610ce3565b505050565b6000806002600084815260200190815260200160002060009054906101000a900473ffffffffffffffffffffffffffffffffffffffff169050600073ffffffffffffffffffffffffffffffffffffffff168173ffffffffffffffffffffffffffffffffffffffff161415610979576040517f08c379a0000000000000000000000000000000000000000000000000000000008152600401610970906129c9565b60405180910390fd5b80915050919050565b6000600a54905090565b60008073ffffffffffffffffffffffffffffffffffffffff168273ffffffffffffffffffffffffffffffffffffffff1614156109fd576040517f08c379a00000000000000000000000000000000000000000000000000000000081526004016109f490612a5b565b60405180910390fd5b600360008373ffffffffffffffffffffffffffffffffffffffff1673ffffffffffffffffffffffffffffffffffffffff168152602001908152602001600020549050919050565b610a4c6115a0565b610a56600061161e565b565b6000600760009054906101000a900473ffffffffffffffffffffffffffffffffffffffff16905090565b606060018054610a919061273d565b80601f0160208091040260200160405190810160405280929190818152602001828054610abd9061273d565b8015610b0a5780601f10610adf57610100808354040283529160200191610b0a565b820191906000526020600020905b815481529060010190602001808311610aed57829003601f168201915b5050505050905090565b610b26610b1f61103c565b83836116e4565b5050565b600080600a5490507f000000000000000000000000000000000000000000000000000000000000000073ffffffffffffffffffffffffffffffffffffffff16635d3b1d307f00000000000000000000000000000000000000000000000000000000000000007f000000000000000000000000000000000000000000000000000000000000000060017f000000000000000000000000000000000000000000000000000000000000000060016040518663ffffffff1660e01b8152600401610bf5959493929190612af3565b602060405180830381600087803b158015610c0f57600080fd5b505af1158015610c23573d6000803e3d6000fd5b505050506040513d601f19601f82011682018060405250810190610c479190612b5b565b9150336009600084815260200190815260200160002060006101000a81548173ffffffffffffffffffffffffffffffffffffffff021916908373ffffffffffffffffffffffffffffffffffffffff1602179055503373ffffffffffffffffffffffffffffffffffffffff16817f4a5a6cfa936f7a8d639ca2c911b5694abbcda4acde3b3892fada575606e5ec3e60405160405180910390a35090565b610cf4610cee61103c565b836112a4565b610d33576040517f08c379a0000000000000000000000000000000000000000000000000000000008152600401610d2a9061295d565b60405180910390fd5b610d3f84848484611851565b50505050565b6060610d5082610ff1565b6000600660008481526020019081526020016000208054610d709061273d565b80601f0160208091040260200160405190810160405280929190818152602001828054610d9c9061273d565b8015610de95780601f10610dbe57610100808354040283529160200191610de9565b820191906000526020600020905b815481529060010190602001808311610dcc57829003601f168201915b505050505090506000610dfa6118ad565b9050600081511415610e10578192505050610e53565b600082511115610e45578082604051602001610e2d929190612bc4565b60405160208183030381529060405292505050610e53565b610e4e846118c4565b925050505b919050565b6000600560008473ffffffffffffffffffffffffffffffffffffffff1673ffffffffffffffffffffffffffffffffffffffff16815260200190815260200160002060008373ffffffffffffffffffffffffffffffffffffffff1673ffffffffffffffffffffffffffffffffffffffff16815260200190815260200160002060009054906101000a900460ff16905092915050565b6000600760149054906101000a900460ff16905090565b610f0b6115a0565b600073ffffffffffffffffffffffffffffffffffffffff168173ffffffffffffffffffffffffffffffffffffffff161415610f7b576040517f08c379a0000000000000000000000000000000000000000000000000000000008152600401610f7290612c5a565b60405180910390fd5b610f848161161e565b50565b60007f01ffc9a7000000000000000000000000000000000000000000000000000000007bffffffffffffffffffffffffffffffffffffffffffffffffffffffff1916827bffffffffffffffffffffffffffffffffffffffffffffffffffffffff1916149050919050565b610ffa8161192c565b611039576040517f08c379a0000000000000000000000000000000000000000000000000000000008152600401611030906129c9565b60405180910390fd5b50565b600033905090565b816004600083815260200190815260200160002060006101000a81548173ffffffffffffffffffffffffffffffffffffffff021916908373ffffffffffffffffffffffffffffffffffffffff160217905550808273ffffffffffffffffffffffffffffffffffffffff166110b7836108d0565b73ffffffffffffffffffffffffffffffffffffffff167f8c5be1e5ebec7d5bd14f71427d1e84f3dd0314c0f7b2291e5b200ac8c7c3b92560405160405180910390a45050565b60006009600084815260200190815260200160002060009054906101000a900473ffffffffffffffffffffffffffffffffffffffff1690506000600a54905060007f000000000000000000000000000000000000000000000000000000000000000061ffff16846000815181106111775761117661276f565b5b60200260200101516111899190612ca9565b90506001600a5461119a9190612d09565b600a819055506111aa8383611998565b61125a82600883815481106111c2576111c161276f565b5b9060005260206000200180546111d79061273d565b80601f01602080910402602001604051908101604052809291908181526020018280546112039061273d565b80156112505780601f1061122557610100808354040283529160200191611250565b820191906000526020600020905b81548152906001019060200180831161123357829003601f168201915b50505050506119b6565b8273ffffffffffffffffffffffffffffffffffffffff167fc97164bcf0d192c1e5ec5b9609e2d3b472436575938781e73d5f4795e8e101fc60405160405180910390a25050505050565b6000806112b0836108d0565b90508073ffffffffffffffffffffffffffffffffffffffff168473ffffffffffffffffffffffffffffffffffffffff1614806112f257506112f18185610e58565b5b8061133057508373ffffffffffffffffffffffffffffffffffffffff1661131884610632565b73ffffffffffffffffffffffffffffffffffffffff16145b91505092915050565b8273ffffffffffffffffffffffffffffffffffffffff16611359826108d0565b73ffffffffffffffffffffffffffffffffffffffff16146113af576040517f08c379a00000000000000000000000000000000000000000000000000000000081526004016113a690612dd1565b60405180910390fd5b600073ffffffffffffffffffffffffffffffffffffffff168273ffffffffffffffffffffffffffffffffffffffff16141561141f576040517f08c379a000000000000000000000000000000000000000000000000000000000815260040161141690612e63565b60405180910390fd5b61142a838383611a2a565b611435600082611044565b6001600360008573ffffffffffffffffffffffffffffffffffffffff1673ffffffffffffffffffffffffffffffffffffffff16815260200190815260200160002060008282546114859190612e83565b925050819055506001600360008473ffffffffffffffffffffffffffffffffffffffff1673ffffffffffffffffffffffffffffffffffffffff16815260200190815260200160002060008282546114dc9190612d09565b92505081905550816002600083815260200190815260200160002060006101000a81548173ffffffffffffffffffffffffffffffffffffffff021916908373ffffffffffffffffffffffffffffffffffffffff160217905550808273ffffffffffffffffffffffffffffffffffffffff168473ffffffffffffffffffffffffffffffffffffffff167fddf252ad1be2c89b69c2b068fc378daa952ba7f163c4a11628f55a4df523b3ef60405160405180910390a461159b838383611a2f565b505050565b6115a861103c565b73ffffffffffffffffffffffffffffffffffffffff166115c6610a58565b73ffffffffffffffffffffffffffffffffffffffff161461161c576040517f08c379a000000000000000000000000000000000000000000000000000000000815260040161161390612f03565b60405180910390fd5b565b6000600760009054906101000a900473ffffffffffffffffffffffffffffffffffffffff16905081600760006101000a81548173ffffffffffffffffffffffffffffffffffffffff021916908373ffffffffffffffffffffffffffffffffffffffff1602179055508173ffffffffffffffffffffffffffffffffffffffff168173ffffffffffffffffffffffffffffffffffffffff167f8be0079c531659141344cd1fd0a4f28419497f9722a3daafe3b4186f6b6457e060405160405180910390a35050565b8173ffffffffffffffffffffffffffffffffffffffff168373ffffffffffffffffffffffffffffffffffffffff161415611753576040517f08c379a000000000000000000000000000000000000000000000000000000000815260040161174a90612f6f565b60405180910390fd5b80600560008573ffffffffffffffffffffffffffffffffffffffff1673ffffffffffffffffffffffffffffffffffffffff16815260200190815260200160002060008473ffffffffffffffffffffffffffffffffffffffff1673ffffffffffffffffffffffffffffffffffffffff16815260200190815260200160002060006101000a81548160ff0219169083151502179055508173ffffffffffffffffffffffffffffffffffffffff168373ffffffffffffffffffffffffffffffffffffffff167f17307eab39ab6107e8899845ad3d59bd9653f200f220920489ca2b5937696c318360405161184491906120db565b60405180910390a3505050565b61185c848484611339565b61186884848484611a34565b6118a7576040517f08c379a000000000000000000000000000000000000000000000000000000000815260040161189e90613001565b60405180910390fd5b50505050565b606060405180602001604052806000815250905090565b60606118cf82610ff1565b60006118d96118ad565b905060008151116118f95760405180602001604052806000815250611924565b8061190384611bcb565b604051602001611914929190612bc4565b6040516020818303038152906040525b915050919050565b60008073ffffffffffffffffffffffffffffffffffffffff166002600084815260200190815260200160002060009054906101000a900473ffffffffffffffffffffffffffffffffffffffff1673ffffffffffffffffffffffffffffffffffffffff1614159050919050565b6119b2828260405180602001604052806000815250611d2c565b5050565b6119bf8261192c565b6119fe576040517f08c379a00000000000000000000000000000000000000000000000000000000081526004016119f590613093565b60405180910390fd5b80600660008481526020019081526020016000209080519060200190611a25929190611f84565b505050565b505050565b505050565b6000611a558473ffffffffffffffffffffffffffffffffffffffff16611d87565b15611bbe578373ffffffffffffffffffffffffffffffffffffffff1663150b7a02611a7e61103c565b8786866040518563ffffffff1660e01b8152600401611aa09493929190613108565b602060405180830381600087803b158015611aba57600080fd5b505af1925050508015611aeb57506040513d601f19601f82011682018060405250810190611ae89190613169565b60015b611b6e573d8060008114611b1b576040519150601f19603f3d011682016040523d82523d6000602084013e611b20565b606091505b50600081511415611b66576040517f08c379a0000000000000000000000000000000000000000000000000000000008152600401611b5d90613001565b60405180910390fd5b805181602001fd5b63150b7a0260e01b7bffffffffffffffffffffffffffffffffffffffffffffffffffffffff1916817bffffffffffffffffffffffffffffffffffffffffffffffffffffffff191614915050611bc3565b600190505b949350505050565b60606000821415611c13576040518060400160405280600181526020017f30000000000000000000000000000000000000000000000000000000000000008152509050611d27565b600082905060005b60008214611c45578080611c2e90613196565b915050600a82611c3e91906131df565b9150611c1b565b60008167ffffffffffffffff811115611c6157611c606122e1565b5b6040519080825280601f01601f191660200182016040528015611c935781602001600182028036833780820191505090505b5090505b60008514611d2057600182611cac9190612e83565b9150600a85611cbb9190612ca9565b6030611cc79190612d09565b60f81b818381518110611cdd57611cdc61276f565b5b60200101907effffffffffffffffffffffffffffffffffffffffffffffffffffffffffffff1916908160001a905350600a85611d1991906131df565b9450611c97565b8093505050505b919050565b611d368383611daa565b611d436000848484611a34565b611d82576040517f08c379a0000000000000000000000000000000000000000000000000000000008152600401611d7990613001565b60405180910390fd5b505050565b6000808273ffffffffffffffffffffffffffffffffffffffff163b119050919050565b600073ffffffffffffffffffffffffffffffffffffffff168273ffffffffffffffffffffffffffffffffffffffff161415611e1a576040517f08c379a0000000000000000000000000000000000000000000000000000000008152600401611e119061325c565b60405180910390fd5b611e238161192c565b15611e63576040517f08c379a0000000000000000000000000000000000000000000000000000000008152600401611e5a906132c8565b60405180910390fd5b611e6f60008383611a2a565b6001600360008473ffffffffffffffffffffffffffffffffffffffff1673ffffffffffffffffffffffffffffffffffffffff1681526020019081526020016000206000828254611ebf9190612d09565b92505081905550816002600083815260200190815260200160002060006101000a81548173ffffffffffffffffffffffffffffffffffffffff021916908373ffffffffffffffffffffffffffffffffffffffff160217905550808273ffffffffffffffffffffffffffffffffffffffff16600073ffffffffffffffffffffffffffffffffffffffff167fddf252ad1be2c89b69c2b068fc378daa952ba7f163c4a11628f55a4df523b3ef60405160405180910390a4611f8060008383611a2f565b5050565b828054611f909061273d565b90600052602060002090601f016020900481019282611fb25760008555611ff9565b82601f10611fcb57805160ff1916838001178555611ff9565b82800160010185558215611ff9579182015b82811115611ff8578251825591602001919060010190611fdd565b5b509050612006919061200a565b5090565b5b8082111561202357600081600090555060010161200b565b5090565b6000604051905090565b600080fd5b600080fd5b60007fffffffff0000000000000000000000000000000000000000000000000000000082169050919050565b6120708161203b565b811461207b57600080fd5b50565b60008135905061208d81612067565b92915050565b6000602082840312156120a9576120a8612031565b5b60006120b78482850161207e565b91505092915050565b60008115159050919050565b6120d5816120c0565b82525050565b60006020820190506120f060008301846120cc565b92915050565b600081519050919050565b600082825260208201905092915050565b60005b83811015612130578082015181840152602081019050612115565b8381111561213f576000848401525b50505050565b6000601f19601f8301169050919050565b6000612161826120f6565b61216b8185612101565b935061217b818560208601612112565b61218481612145565b840191505092915050565b600060208201905081810360008301526121a98184612156565b905092915050565b6000819050919050565b6121c4816121b1565b81146121cf57600080fd5b50565b6000813590506121e1816121bb565b92915050565b6000602082840312156121fd576121fc612031565b5b600061220b848285016121d2565b91505092915050565b600073ffffffffffffffffffffffffffffffffffffffff82169050919050565b600061223f82612214565b9050919050565b61224f81612234565b82525050565b600060208201905061226a6000830184612246565b92915050565b61227981612234565b811461228457600080fd5b50565b60008135905061229681612270565b92915050565b600080604083850312156122b3576122b2612031565b5b60006122c185828601612287565b92505060206122d2858286016121d2565b9150509250929050565b600080fd5b7f4e487b7100000000000000000000000000000000000000000000000000000000600052604160045260246000fd5b61231982612145565b810181811067ffffffffffffffff82111715612338576123376122e1565b5b80604052505050565b600061234b612027565b90506123578282612310565b919050565b600067ffffffffffffffff821115612377576123766122e1565b5b602082029050602081019050919050565b600080fd5b60006123a061239b8461235c565b612341565b905080838252602082019050602084028301858111156123c3576123c2612388565b5b835b818110156123ec57806123d888826121d2565b8452602084019350506020810190506123c5565b5050509392505050565b600082601f83011261240b5761240a6122dc565b5b813561241b84826020860161238d565b91505092915050565b6000806040838503121561243b5761243a612031565b5b6000612449858286016121d2565b925050602083013567ffffffffffffffff81111561246a57612469612036565b5b612476858286016123f6565b9150509250929050565b60008060006060848603121561249957612498612031565b5b60006124a786828701612287565b93505060206124b886828701612287565b92505060406124c9868287016121d2565b9150509250925092565b6124dc816121b1565b82525050565b60006020820190506124f760008301846124d3565b92915050565b60006020828403121561251357612512612031565b5b600061252184828501612287565b91505092915050565b612533816120c0565b811461253e57600080fd5b50565b6000813590506125508161252a565b92915050565b6000806040838503121561256d5761256c612031565b5b600061257b85828601612287565b925050602061258c85828601612541565b9150509250929050565b600080fd5b600067ffffffffffffffff8211156125b6576125b56122e1565b5b6125bf82612145565b9050602081019050919050565b82818337600083830152505050565b60006125ee6125e98461259b565b612341565b90508281526020810184848401111561260a57612609612596565b5b6126158482856125cc565b509392505050565b600082601f830112612632576126316122dc565b5b81356126428482602086016125db565b91505092915050565b6000806000806080858703121561266557612664612031565b5b600061267387828801612287565b945050602061268487828801612287565b9350506040612695878288016121d2565b925050606085013567ffffffffffffffff8111156126b6576126b5612036565b5b6126c28782880161261d565b91505092959194509250565b600080604083850312156126e5576126e4612031565b5b60006126f385828601612287565b925050602061270485828601612287565b9150509250929050565b7f4e487b7100000000000000000000000000000000000000000000000000000000600052602260045260246000fd5b6000600282049050600182168061275557607f821691505b602082108114156127695761276861270e565b5b50919050565b7f4e487b7100000000000000000000000000000000000000000000000000000000600052603260045260246000fd5b7f4552433732313a20617070726f76616c20746f2063757272656e74206f776e6560008201527f7200000000000000000000000000000000000000000000000000000000000000602082015250565b60006127fa602183612101565b91506128058261279e565b604082019050919050565b60006020820190508181036000830152612829816127ed565b9050919050565b7f4552433732313a20617070726f76652063616c6c6572206973206e6f7420746f60008201527f6b656e206f776e6572206e6f7220617070726f76656420666f7220616c6c0000602082015250565b600061288c603e83612101565b915061289782612830565b604082019050919050565b600060208201905081810360008301526128bb8161287f565b9050919050565b60006040820190506128d76000830185612246565b6128e46020830184612246565b9392505050565b7f4552433732313a2063616c6c6572206973206e6f7420746f6b656e206f776e6560008201527f72206e6f7220617070726f766564000000000000000000000000000000000000602082015250565b6000612947602e83612101565b9150612952826128eb565b604082019050919050565b600060208201905081810360008301526129768161293a565b9050919050565b7f4552433732313a20696e76616c696420746f6b656e2049440000000000000000600082015250565b60006129b3601883612101565b91506129be8261297d565b602082019050919050565b600060208201905081810360008301526129e2816129a6565b9050919050565b7f4552433732313a2061646472657373207a65726f206973206e6f74206120766160008201527f6c6964206f776e65720000000000000000000000000000000000000000000000602082015250565b6000612a45602983612101565b9150612a50826129e9565b604082019050919050565b60006020820190508181036000830152612a7481612a38565b9050919050565b6000819050919050565b612a8e81612a7b565b82525050565b600067ffffffffffffffff82169050919050565b612ab181612a94565b82525050565b600061ffff82169050919050565b612ace81612ab7565b82525050565b600063ffffffff82169050919050565b612aed81612ad4565b82525050565b600060a082019050612b086000830188612a85565b612b156020830187612aa8565b612b226040830186612ac5565b612b2f6060830185612ae4565b612b3c6080830184612ae4565b9695505050505050565b600081519050612b55816121bb565b92915050565b600060208284031215612b7157612b70612031565b5b6000612b7f84828501612b46565b91505092915050565b600081905092915050565b6000612b9e826120f6565b612ba88185612b88565b9350612bb8818560208601612112565b80840191505092915050565b6000612bd08285612b93565b9150612bdc8284612b93565b91508190509392505050565b7f4f776e61626c653a206e6577206f776e657220697320746865207a65726f206160008201527f6464726573730000000000000000000000000000000000000000000000000000602082015250565b6000612c44602683612101565b9150612c4f82612be8565b604082019050919050565b60006020820190508181036000830152612c7381612c37565b9050919050565b7f4e487b7100000000000000000000000000000000000000000000000000000000600052601260045260246000fd5b6000612cb4826121b1565b9150612cbf836121b1565b925082612ccf57612cce612c7a565b5b828206905092915050565b7f4e487b7100000000000000000000000000000000000000000000000000000000600052601160045260246000fd5b6000612d14826121b1565b9150612d1f836121b1565b9250827fffffffffffffffffffffffffffffffffffffffffffffffffffffffffffffffff03821115612d5457612d53612cda565b5b828201905092915050565b7f4552433732313a207472616e736665722066726f6d20696e636f72726563742060008201527f6f776e6572000000000000000000000000000000000000000000000000000000602082015250565b6000612dbb602583612101565b9150612dc682612d5f565b604082019050919050565b60006020820190508181036000830152612dea81612dae565b9050919050565b7f4552433732313a207472616e7366657220746f20746865207a65726f2061646460008201527f7265737300000000000000000000000000000000000000000000000000000000602082015250565b6000612e4d602483612101565b9150612e5882612df1565b604082019050919050565b60006020820190508181036000830152612e7c81612e40565b9050919050565b6000612e8e826121b1565b9150612e99836121b1565b925082821015612eac57612eab612cda565b5b828203905092915050565b7f4f776e61626c653a2063616c6c6572206973206e6f7420746865206f776e6572600082015250565b6000612eed602083612101565b9150612ef882612eb7565b602082019050919050565b60006020820190508181036000830152612f1c81612ee0565b9050919050565b7f4552433732313a20617070726f766520746f2063616c6c657200000000000000600082015250565b6000612f59601983612101565b9150612f6482612f23565b602082019050919050565b60006020820190508181036000830152612f8881612f4c565b9050919050565b7f4552433732313a207472616e7366657220746f206e6f6e20455243373231526560008201527f63656976657220696d706c656d656e7465720000000000000000000000000000602082015250565b6000612feb603283612101565b9150612ff682612f8f565b604082019050919050565b6000602082019050818103600083015261301a81612fde565b9050919050565b7f45524337323155524953746f726167653a2055524920736574206f66206e6f6e60008201527f6578697374656e7420746f6b656e000000000000000000000000000000000000602082015250565b600061307d602e83612101565b915061308882613021565b604082019050919050565b600060208201905081810360008301526130ac81613070565b9050919050565b600081519050919050565b600082825260208201905092915050565b60006130da826130b3565b6130e481856130be565b93506130f4818560208601612112565b6130fd81612145565b840191505092915050565b600060808201905061311d6000830187612246565b61312a6020830186612246565b61313760408301856124d3565b818103606083015261314981846130cf565b905095945050505050565b60008151905061316381612067565b92915050565b60006020828403121561317f5761317e612031565b5b600061318d84828501613154565b91505092915050565b60006131a1826121b1565b91507fffffffffffffffffffffffffffffffffffffffffffffffffffffffffffffffff8214156131d4576131d3612cda565b5b600182019050919050565b60006131ea826121b1565b91506131f5836121b1565b92508261320557613204612c7a565b5b828204905092915050565b7f4552433732313a206d696e7420746f20746865207a65726f2061646472657373600082015250565b6000613246602083612101565b915061325182613210565b602082019050919050565b6000602082019050818103600083015261327581613239565b9050919050565b7f4552433732313a20746f6b656e20616c7265616479206d696e74656400000000600082015250565b60006132b2601c83612101565b91506132bd8261327c565b602082019050919050565b600060208201905081810360008301526132e1816132a5565b905091905056fea264697066735822122071510dd6da8914de2d19e495c32fc34281ee8b984490b994ecbb242dd549a1f964736f6c63430008090033",
  "devdoc": {
    "kind": "dev",
    "methods": {
      "approve(address,uint256)": {
        "details": "See {IERC721-approve}."
      },
      "balanceOf(address)": {
        "details": "See {IERC721-balanceOf}."
      },
      "getApproved(uint256)": {
        "details": "See {IERC721-getApproved}."
      },
      "isApprovedForAll(address,address)": {
        "details": "See {IERC721-isApprovedForAll}."
      },
      "name()": {
        "details": "See {IERC721Metadata-name}."
      },
      "owner()": {
        "details": "Returns the address of the current owner."
      },
      "ownerOf(uint256)": {
        "details": "See {IERC721-ownerOf}."
      },
      "renounceOwnership()": {
        "details": "Leaves the contract without owner. It will not be possible to call `onlyOwner` functions anymore. Can only be called by the current owner. NOTE: Renouncing ownership will leave the contract without an owner, thereby removing any functionality that is only available to the owner."
      },
      "safeTransferFrom(address,address,uint256)": {
        "details": "See {IERC721-safeTransferFrom}."
      },
      "safeTransferFrom(address,address,uint256,bytes)": {
        "details": "See {IERC721-safeTransferFrom}."
      },
      "setApprovalForAll(address,bool)": {
        "details": "See {IERC721-setApprovalForAll}."
      },
      "supportsInterface(bytes4)": {
        "details": "See {IERC165-supportsInterface}."
      },
      "symbol()": {
        "details": "See {IERC721Metadata-symbol}."
      },
      "tokenURI(uint256)": {
        "details": "See {IERC721Metadata-tokenURI}."
      },
      "transferFrom(address,address,uint256)": {
        "details": "See {IERC721-transferFrom}."
      },
      "transferOwnership(address)": {
        "details": "Transfers ownership of the contract to a new account (`newOwner`). Can only be called by the current owner."
      }
    },
    "version": 1
  },
  "userdoc": {
    "kind": "user",
    "methods": {},
    "version": 1
  },
  "storageLayout": {
    "storage": [
      {
        "astId": 1067,
        "contract": "contracts/IpfsNft.sol:IpfsNFT",
        "label": "_name",
        "offset": 0,
        "slot": "0",
        "type": "t_string_storage"
      },
      {
        "astId": 1069,
        "contract": "contracts/IpfsNft.sol:IpfsNFT",
        "label": "_symbol",
        "offset": 0,
        "slot": "1",
        "type": "t_string_storage"
      },
      {
        "astId": 1073,
        "contract": "contracts/IpfsNft.sol:IpfsNFT",
        "label": "_owners",
        "offset": 0,
        "slot": "2",
        "type": "t_mapping(t_uint256,t_address)"
      },
      {
        "astId": 1077,
        "contract": "contracts/IpfsNft.sol:IpfsNFT",
        "label": "_balances",
        "offset": 0,
        "slot": "3",
        "type": "t_mapping(t_address,t_uint256)"
      },
      {
        "astId": 1081,
        "contract": "contracts/IpfsNft.sol:IpfsNFT",
        "label": "_tokenApprovals",
        "offset": 0,
        "slot": "4",
        "type": "t_mapping(t_uint256,t_address)"
      },
      {
        "astId": 1087,
        "contract": "contracts/IpfsNft.sol:IpfsNFT",
        "label": "_operatorApprovals",
        "offset": 0,
        "slot": "5",
        "type": "t_mapping(t_address,t_mapping(t_address,t_bool))"
      },
      {
        "astId": 2055,
        "contract": "contracts/IpfsNft.sol:IpfsNFT",
        "label": "_tokenURIs",
        "offset": 0,
        "slot": "6",
        "type": "t_mapping(t_uint256,t_string_storage)"
      },
      {
        "astId": 207,
        "contract": "contracts/IpfsNft.sol:IpfsNFT",
        "label": "_owner",
        "offset": 0,
        "slot": "7",
        "type": "t_address"
      },
      {
        "astId": 3290,
        "contract": "contracts/IpfsNft.sol:IpfsNFT",
        "label": "s_isinitialized",
        "offset": 20,
        "slot": "7",
        "type": "t_bool"
      },
      {
        "astId": 3293,
        "contract": "contracts/IpfsNft.sol:IpfsNFT",
        "label": "s_TokenURIs",
        "offset": 0,
        "slot": "8",
        "type": "t_array(t_string_storage)dyn_storage"
      },
      {
        "astId": 3297,
        "contract": "contracts/IpfsNft.sol:IpfsNFT",
        "label": "s_requestIdToOwner",
        "offset": 0,
        "slot": "9",
        "type": "t_mapping(t_uint256,t_address)"
      },
      {
        "astId": 3299,
        "contract": "contracts/IpfsNft.sol:IpfsNFT",
        "label": "s_tokenCounter",
        "offset": 0,
        "slot": "10",
        "type": "t_uint256"
      }
    ],
    "types": {
      "t_address": {
        "encoding": "inplace",
        "label": "address",
        "numberOfBytes": "20"
      },
      "t_array(t_string_storage)dyn_storage": {
        "base": "t_string_storage",
        "encoding": "dynamic_array",
        "label": "string[]",
        "numberOfBytes": "32"
      },
      "t_bool": {
        "encoding": "inplace",
        "label": "bool",
        "numberOfBytes": "1"
      },
      "t_mapping(t_address,t_bool)": {
        "encoding": "mapping",
        "key": "t_address",
        "label": "mapping(address => bool)",
        "numberOfBytes": "32",
        "value": "t_bool"
      },
      "t_mapping(t_address,t_mapping(t_address,t_bool))": {
        "encoding": "mapping",
        "key": "t_address",
        "label": "mapping(address => mapping(address => bool))",
        "numberOfBytes": "32",
        "value": "t_mapping(t_address,t_bool)"
      },
      "t_mapping(t_address,t_uint256)": {
        "encoding": "mapping",
        "key": "t_address",
        "label": "mapping(address => uint256)",
        "numberOfBytes": "32",
        "value": "t_uint256"
      },
      "t_mapping(t_uint256,t_address)": {
        "encoding": "mapping",
        "key": "t_uint256",
        "label": "mapping(uint256 => address)",
        "numberOfBytes": "32",
        "value": "t_address"
      },
      "t_mapping(t_uint256,t_string_storage)": {
        "encoding": "mapping",
        "key": "t_uint256",
        "label": "mapping(uint256 => string)",
        "numberOfBytes": "32",
        "value": "t_string_storage"
      },
      "t_string_storage": {
        "encoding": "bytes",
        "label": "string",
        "numberOfBytes": "32"
      },
      "t_uint256": {
        "encoding": "inplace",
        "label": "uint256",
        "numberOfBytes": "32"
      }
    }
  }
}