{
  "address": "0x9fE46736679d2D9a65F0992F2272dE9f3c7fa6e0",
  "abi": [
    {
      "inputs": [
        {
          "internalType": "address",
          "name": "nftAddress",
          "type": "address"
        },
        {
          "internalType": "uint256",
          "name": "tokenId",
          "type": "uint256"
        }
      ],
      "name": "Marketplace__AlreadyListed",
      "type": "error"
    },
    {
      "inputs": [
        {
          "internalType": "address",
          "name": "withdrawer",
          "type": "address"
        }
      ],
      "name": "Marketplace__AmountTransferFailed",
      "type": "error"
    },
    {
      "inputs": [],
      "name": "Marketplace__NoAmountToWithdraw",
      "type": "error"
    },
    {
      "inputs": [],
      "name": "Marketplace__NotAppoved",
      "type": "error"
    },
    {
      "inputs": [],
      "name": "Marketplace__NotListed",
      "type": "error"
    },
    {
      "inputs": [],
      "name": "Marketplace__NotOwnerOfNFT",
      "type": "error"
    },
    {
      "inputs": [
        {
          "internalType": "uint256",
          "name": "sentValue",
          "type": "uint256"
        },
        {
          "internalType": "uint256",
          "name": "price",
          "type": "uint256"
        }
      ],
      "name": "Marketplace__NotSentEnoughEth",
      "type": "error"
    },
    {
      "inputs": [],
      "name": "Marketplace__PriceShouldBeAboveZero",
      "type": "error"
    },
    {
      "anonymous": false,
      "inputs": [
        {
          "indexed": true,
          "internalType": "address",
          "name": "nftAddres",
          "type": "address"
        },
        {
          "indexed": true,
          "internalType": "address",
          "name": "buyer",
          "type": "address"
        },
        {
          "indexed": false,
          "internalType": "address",
          "name": "seller",
          "type": "address"
        },
        {
          "indexed": true,
          "internalType": "uint256",
          "name": "tokenId",
          "type": "uint256"
        },
        {
          "indexed": false,
          "internalType": "uint256",
          "name": "price",
          "type": "uint256"
        }
      ],
      "name": "BoughtItem",
      "type": "event"
    },
    {
      "anonymous": false,
      "inputs": [
        {
          "indexed": true,
          "internalType": "address",
          "name": "nftAddress",
          "type": "address"
        },
        {
          "indexed": true,
          "internalType": "uint256",
          "name": "tokenId",
          "type": "uint256"
        },
        {
          "indexed": false,
          "internalType": "uint256",
          "name": "price",
          "type": "uint256"
        },
        {
          "indexed": true,
          "internalType": "address",
          "name": "seller",
          "type": "address"
        }
      ],
      "name": "ItemAdded",
      "type": "event"
    },
    {
      "anonymous": false,
      "inputs": [
        {
          "indexed": true,
          "internalType": "address",
          "name": "seller",
          "type": "address"
        },
        {
          "indexed": true,
          "internalType": "address",
          "name": "nftAddress",
          "type": "address"
        },
        {
          "indexed": true,
          "internalType": "uint256",
          "name": "tokenId",
          "type": "uint256"
        }
      ],
      "name": "ItemCancelled",
      "type": "event"
    },
    {
      "inputs": [
        {
          "internalType": "address",
          "name": "nftAddress",
          "type": "address"
        },
        {
          "internalType": "uint256",
          "name": "tokenId",
          "type": "uint256"
        }
      ],
      "name": "buyItem",
      "outputs": [],
      "stateMutability": "payable",
      "type": "function"
    },
    {
      "inputs": [
        {
          "internalType": "address",
          "name": "nftAddress",
          "type": "address"
        },
        {
          "internalType": "uint256",
          "name": "tokenId",
          "type": "uint256"
        }
      ],
      "name": "cancelItem",
      "outputs": [],
      "stateMutability": "nonpayable",
      "type": "function"
    },
    {
      "inputs": [
        {
          "internalType": "address",
          "name": "seller",
          "type": "address"
        }
      ],
      "name": "getAmountOwned",
      "outputs": [
        {
          "internalType": "uint256",
          "name": "amount",
          "type": "uint256"
        }
      ],
      "stateMutability": "view",
      "type": "function"
    },
    {
      "inputs": [
        {
          "internalType": "address",
          "name": "nftAddress",
          "type": "address"
        },
        {
          "internalType": "uint256",
          "name": "tokenId",
          "type": "uint256"
        }
      ],
      "name": "getListingInfo",
      "outputs": [
        {
          "components": [
            {
              "internalType": "uint256",
              "name": "price",
              "type": "uint256"
            },
            {
              "internalType": "address",
              "name": "seller",
              "type": "address"
            }
          ],
          "internalType": "struct Marketplace.Listing",
          "name": "listing",
          "type": "tuple"
        }
      ],
      "stateMutability": "view",
      "type": "function"
    },
    {
      "inputs": [
        {
          "internalType": "address",
          "name": "nftAddress",
          "type": "address"
        },
        {
          "internalType": "uint256",
          "name": "tokenId",
          "type": "uint256"
        },
        {
          "internalType": "uint256",
          "name": "price",
          "type": "uint256"
        }
      ],
      "name": "listItem",
      "outputs": [],
      "stateMutability": "nonpayable",
      "type": "function"
    },
    {
      "inputs": [
        {
          "internalType": "address",
          "name": "nftAddress",
          "type": "address"
        },
        {
          "internalType": "uint256",
          "name": "tokenId",
          "type": "uint256"
        },
        {
          "internalType": "uint256",
          "name": "updatedPrice",
          "type": "uint256"
        }
      ],
      "name": "updateItem",
      "outputs": [],
      "stateMutability": "nonpayable",
      "type": "function"
    },
    {
      "inputs": [],
      "name": "withdrawAmount",
      "outputs": [],
      "stateMutability": "nonpayable",
      "type": "function"
    }
  ],
  "transactionHash": "0xd042272c92475e6c201cf9963b8ff2525e6d61c7a8d8ec47b54d5baec1eac04c",
  "args": [],
  "numDeployments": 1,
  "solcInputHash": "1aaa84d01164e018defb751db9209d1b",
  "bytecode": "0x608060405234801561001057600080fd5b506001600081905550611738806100286000396000f3fe6080604052600436106100705760003560e01c80637c60fcb51161004e5780637c60fcb5146100f257806389bfd38f1461012f5780638f6d40d2146101585780639f37092a1461018157610070565b8063534844a2146100755780635b860d581461008c578063781c1f1d146100c9575b600080fd5b34801561008157600080fd5b5061008a61019d565b005b34801561009857600080fd5b506100b360048036038101906100ae9190611373565b610312565b6040516100c09190611400565b60405180910390f35b3480156100d557600080fd5b506100f060048036038101906100eb919061141b565b6103dd565b005b3480156100fe57600080fd5b506101196004803603810190610114919061146e565b6106a1565b60405161012691906114aa565b60405180910390f35b34801561013b57600080fd5b506101566004803603810190610151919061141b565b6106ea565b005b34801561016457600080fd5b5061017f600480360381019061017a9190611373565b610b62565b005b61019b60048036038101906101969190611373565b610e44565b005b6000600260003373ffffffffffffffffffffffffffffffffffffffff1673ffffffffffffffffffffffffffffffffffffffff1681526020019081526020016000205490506000811161021b576040517f62463f9500000000000000000000000000000000000000000000000000000000815260040160405180910390fd5b6000600260003373ffffffffffffffffffffffffffffffffffffffff1673ffffffffffffffffffffffffffffffffffffffff1681526020019081526020016000208190555060003373ffffffffffffffffffffffffffffffffffffffff1682604051610286906114f6565b60006040518083038185875af1925050503d80600081146102c3576040519150601f19603f3d011682016040523d82523d6000602084013e6102c8565b606091505b505090508061030e57336040517f1fb37404000000000000000000000000000000000000000000000000000000008152600401610305919061151a565b60405180910390fd5b5050565b61031a6112aa565b600160008473ffffffffffffffffffffffffffffffffffffffff1673ffffffffffffffffffffffffffffffffffffffff1681526020019081526020016000206000838152602001908152602001600020604051806040016040529081600082015481526020016001820160009054906101000a900473ffffffffffffffffffffffffffffffffffffffff1673ffffffffffffffffffffffffffffffffffffffff1673ffffffffffffffffffffffffffffffffffffffff1681525050905092915050565b828233600083905060008173ffffffffffffffffffffffffffffffffffffffff16636352211e856040518263ffffffff1660e01b815260040161042091906114aa565b60206040518083038186803b15801561043857600080fd5b505afa15801561044c573d6000803e3d6000fd5b505050506040513d601f19601f82011682018060405250810190610470919061154a565b90508073ffffffffffffffffffffffffffffffffffffffff168373ffffffffffffffffffffffffffffffffffffffff16146104d7576040517f6a56281400000000000000000000000000000000000000000000000000000000815260040160405180910390fd5b87876000600160008473ffffffffffffffffffffffffffffffffffffffff1673ffffffffffffffffffffffffffffffffffffffff1681526020019081526020016000206000838152602001908152602001600020604051806040016040529081600082015481526020016001820160009054906101000a900473ffffffffffffffffffffffffffffffffffffffff1673ffffffffffffffffffffffffffffffffffffffff1673ffffffffffffffffffffffffffffffffffffffff1681525050905060008160000151116105d6576040517f3484202c00000000000000000000000000000000000000000000000000000000815260040160405180910390fd5b88600160008d73ffffffffffffffffffffffffffffffffffffffff1673ffffffffffffffffffffffffffffffffffffffff16815260200190815260200160002060008c8152602001908152602001600020600001819055503373ffffffffffffffffffffffffffffffffffffffff168a8c73ffffffffffffffffffffffffffffffffffffffff167fa1c11fadba6e7aca6779a0f14e81db26b94eed61bd710438ea74fa3e602dc30d8c60405161068c91906114aa565b60405180910390a45050505050505050505050565b6000600260008373ffffffffffffffffffffffffffffffffffffffff1673ffffffffffffffffffffffffffffffffffffffff168152602001908152602001600020549050919050565b8282336000600160008573ffffffffffffffffffffffffffffffffffffffff1673ffffffffffffffffffffffffffffffffffffffff1681526020019081526020016000206000848152602001908152602001600020604051806040016040529081600082015481526020016001820160009054906101000a900473ffffffffffffffffffffffffffffffffffffffff1673ffffffffffffffffffffffffffffffffffffffff1673ffffffffffffffffffffffffffffffffffffffff168152505090506000816000015111156107f85783836040517f63bf51080000000000000000000000000000000000000000000000000000000081526004016107ef929190611577565b60405180910390fd5b868633600083905060008173ffffffffffffffffffffffffffffffffffffffff16636352211e856040518263ffffffff1660e01b815260040161083b91906114aa565b60206040518083038186803b15801561085357600080fd5b505afa158015610867573d6000803e3d6000fd5b505050506040513d601f19601f8201168201806040525081019061088b919061154a565b90508073ffffffffffffffffffffffffffffffffffffffff168373ffffffffffffffffffffffffffffffffffffffff16146108f2576040517f6a56281400000000000000000000000000000000000000000000000000000000815260040160405180910390fd5b60008a1161092c576040517fc0fa055c00000000000000000000000000000000000000000000000000000000815260040160405180910390fd5b60008c90503073ffffffffffffffffffffffffffffffffffffffff168173ffffffffffffffffffffffffffffffffffffffff1663081812fc8e6040518263ffffffff1660e01b815260040161098191906114aa565b60206040518083038186803b15801561099957600080fd5b505afa1580156109ad573d6000803e3d6000fd5b505050506040513d601f19601f820116820180604052508101906109d1919061154a565b73ffffffffffffffffffffffffffffffffffffffff1614610a1e576040517ff0199b0e00000000000000000000000000000000000000000000000000000000815260040160405180910390fd5b60405180604001604052808c81526020013373ffffffffffffffffffffffffffffffffffffffff16815250600160008f73ffffffffffffffffffffffffffffffffffffffff1673ffffffffffffffffffffffffffffffffffffffff16815260200190815260200160002060008e81526020019081526020016000206000820151816000015560208201518160010160006101000a81548173ffffffffffffffffffffffffffffffffffffffff021916908373ffffffffffffffffffffffffffffffffffffffff1602179055509050503373ffffffffffffffffffffffffffffffffffffffff168c8e73ffffffffffffffffffffffffffffffffffffffff167fa1c11fadba6e7aca6779a0f14e81db26b94eed61bd710438ea74fa3e602dc30d8e604051610b4b91906114aa565b60405180910390a450505050505050505050505050565b818133600083905060008173ffffffffffffffffffffffffffffffffffffffff16636352211e856040518263ffffffff1660e01b8152600401610ba591906114aa565b60206040518083038186803b158015610bbd57600080fd5b505afa158015610bd1573d6000803e3d6000fd5b505050506040513d601f19601f82011682018060405250810190610bf5919061154a565b90508073ffffffffffffffffffffffffffffffffffffffff168373ffffffffffffffffffffffffffffffffffffffff1614610c5c576040517f6a56281400000000000000000000000000000000000000000000000000000000815260040160405180910390fd5b86866000600160008473ffffffffffffffffffffffffffffffffffffffff1673ffffffffffffffffffffffffffffffffffffffff1681526020019081526020016000206000838152602001908152602001600020604051806040016040529081600082015481526020016001820160009054906101000a900473ffffffffffffffffffffffffffffffffffffffff1673ffffffffffffffffffffffffffffffffffffffff1673ffffffffffffffffffffffffffffffffffffffff168152505090506000816000015111610d5b576040517f3484202c00000000000000000000000000000000000000000000000000000000815260040160405180910390fd5b600160008b73ffffffffffffffffffffffffffffffffffffffff1673ffffffffffffffffffffffffffffffffffffffff16815260200190815260200160002060008a81526020019081526020016000206000808201600090556001820160006101000a81549073ffffffffffffffffffffffffffffffffffffffff02191690555050888a73ffffffffffffffffffffffffffffffffffffffff163373ffffffffffffffffffffffffffffffffffffffff167f6e08c1d889d309942730e4afa7963d0c5294a34a479f2c8cf39a953f287dcdee60405160405180910390a450505050505050505050565b60026000541415610e8a576040517f08c379a0000000000000000000000000000000000000000000000000000000008152600401610e81906115fd565b60405180910390fd5b600260008190555081816000600160008473ffffffffffffffffffffffffffffffffffffffff1673ffffffffffffffffffffffffffffffffffffffff1681526020019081526020016000206000838152602001908152602001600020604051806040016040529081600082015481526020016001820160009054906101000a900473ffffffffffffffffffffffffffffffffffffffff1673ffffffffffffffffffffffffffffffffffffffff1673ffffffffffffffffffffffffffffffffffffffff168152505090506000816000015111610f91576040517f3484202c00000000000000000000000000000000000000000000000000000000815260040160405180910390fd5b6000600160008773ffffffffffffffffffffffffffffffffffffffff1673ffffffffffffffffffffffffffffffffffffffff1681526020019081526020016000206000868152602001908152602001600020604051806040016040529081600082015481526020016001820160009054906101000a900473ffffffffffffffffffffffffffffffffffffffff1673ffffffffffffffffffffffffffffffffffffffff1673ffffffffffffffffffffffffffffffffffffffff16815250509050806000015134101561109f573481600001516040517fa70fe0f900000000000000000000000000000000000000000000000000000000815260040161109692919061161d565b60405180910390fd5b3460026000836020015173ffffffffffffffffffffffffffffffffffffffff1673ffffffffffffffffffffffffffffffffffffffff168152602001908152602001600020546110ee9190611675565b60026000836020015173ffffffffffffffffffffffffffffffffffffffff1673ffffffffffffffffffffffffffffffffffffffff16815260200190815260200160002081905550600160008773ffffffffffffffffffffffffffffffffffffffff1673ffffffffffffffffffffffffffffffffffffffff16815260200190815260200160002060008681526020019081526020016000206000808201600090556001820160006101000a81549073ffffffffffffffffffffffffffffffffffffffff021916905550508573ffffffffffffffffffffffffffffffffffffffff166342842e0e826020015133886040518463ffffffff1660e01b81526004016111f8939291906116cb565b600060405180830381600087803b15801561121257600080fd5b505af1158015611226573d6000803e3d6000fd5b50505050843373ffffffffffffffffffffffffffffffffffffffff168773ffffffffffffffffffffffffffffffffffffffff167f9c26116e2cc1f65f0e6e2861346f6401a4814a4bd67f5856c973f3118f46716384602001518560000151604051611292929190611577565b60405180910390a45050505060016000819055505050565b604051806040016040528060008152602001600073ffffffffffffffffffffffffffffffffffffffff1681525090565b600080fd5b600073ffffffffffffffffffffffffffffffffffffffff82169050919050565b600061130a826112df565b9050919050565b61131a816112ff565b811461132557600080fd5b50565b60008135905061133781611311565b92915050565b6000819050919050565b6113508161133d565b811461135b57600080fd5b50565b60008135905061136d81611347565b92915050565b6000806040838503121561138a576113896112da565b5b600061139885828601611328565b92505060206113a98582860161135e565b9150509250929050565b6113bc8161133d565b82525050565b6113cb816112ff565b82525050565b6040820160008201516113e760008501826113b3565b5060208201516113fa60208501826113c2565b50505050565b600060408201905061141560008301846113d1565b92915050565b600080600060608486031215611434576114336112da565b5b600061144286828701611328565b93505060206114538682870161135e565b92505060406114648682870161135e565b9150509250925092565b600060208284031215611484576114836112da565b5b600061149284828501611328565b91505092915050565b6114a48161133d565b82525050565b60006020820190506114bf600083018461149b565b92915050565b600081905092915050565b50565b60006114e06000836114c5565b91506114eb826114d0565b600082019050919050565b6000611501826114d3565b9150819050919050565b611514816112ff565b82525050565b600060208201905061152f600083018461150b565b92915050565b60008151905061154481611311565b92915050565b6000602082840312156115605761155f6112da565b5b600061156e84828501611535565b91505092915050565b600060408201905061158c600083018561150b565b611599602083018461149b565b9392505050565b600082825260208201905092915050565b7f5265656e7472616e637947756172643a207265656e7472616e742063616c6c00600082015250565b60006115e7601f836115a0565b91506115f2826115b1565b602082019050919050565b60006020820190508181036000830152611616816115da565b9050919050565b6000604082019050611632600083018561149b565b61163f602083018461149b565b9392505050565b7f4e487b7100000000000000000000000000000000000000000000000000000000600052601160045260246000fd5b60006116808261133d565b915061168b8361133d565b9250827fffffffffffffffffffffffffffffffffffffffffffffffffffffffffffffffff038211156116c0576116bf611646565b5b828201905092915050565b60006060820190506116e0600083018661150b565b6116ed602083018561150b565b6116fa604083018461149b565b94935050505056fea2646970667358221220595e9c82e70600991af3e04cb9703f8a22ce9eb2f413bbe02e594b4b7a4e36e664736f6c63430008090033",
  "devdoc": {
    "kind": "dev",
    "methods": {},
    "version": 1
  },
  "userdoc": {
    "kind": "user",
    "methods": {},
    "version": 1
  },
  "storageLayout": {
    "storage": [
      {
        "astId": 1544,
        "contract": "contracts/Nft-Marketplace.sol:Marketplace",
        "label": "_status",
        "offset": 0,
        "slot": "0",
        "type": "t_uint256"
      },
      {
        "astId": 4771,
        "contract": "contracts/Nft-Marketplace.sol:Marketplace",
        "label": "s_itemlist",
        "offset": 0,
        "slot": "1",
        "type": "t_mapping(t_address,t_mapping(t_uint256,t_struct(Listing)4734_storage))"
      },
      {
        "astId": 4775,
        "contract": "contracts/Nft-Marketplace.sol:Marketplace",
        "label": "s_sellerToMoney",
        "offset": 0,
        "slot": "2",
        "type": "t_mapping(t_address,t_uint256)"
      }
    ],
    "types": {
      "t_address": {
        "encoding": "inplace",
        "label": "address",
        "numberOfBytes": "20"
      },
      "t_mapping(t_address,t_mapping(t_uint256,t_struct(Listing)4734_storage))": {
        "encoding": "mapping",
        "key": "t_address",
        "label": "mapping(address => mapping(uint256 => struct Marketplace.Listing))",
        "numberOfBytes": "32",
        "value": "t_mapping(t_uint256,t_struct(Listing)4734_storage)"
      },
      "t_mapping(t_address,t_uint256)": {
        "encoding": "mapping",
        "key": "t_address",
        "label": "mapping(address => uint256)",
        "numberOfBytes": "32",
        "value": "t_uint256"
      },
      "t_mapping(t_uint256,t_struct(Listing)4734_storage)": {
        "encoding": "mapping",
        "key": "t_uint256",
        "label": "mapping(uint256 => struct Marketplace.Listing)",
        "numberOfBytes": "32",
        "value": "t_struct(Listing)4734_storage"
      },
      "t_struct(Listing)4734_storage": {
        "encoding": "inplace",
        "label": "struct Marketplace.Listing",
        "members": [
          {
            "astId": 4731,
            "contract": "contracts/Nft-Marketplace.sol:Marketplace",
            "label": "price",
            "offset": 0,
            "slot": "0",
            "type": "t_uint256"
          },
          {
            "astId": 4733,
            "contract": "contracts/Nft-Marketplace.sol:Marketplace",
            "label": "seller",
            "offset": 0,
            "slot": "1",
            "type": "t_address"
          }
        ],
        "numberOfBytes": "64"
      },
      "t_uint256": {
        "encoding": "inplace",
        "label": "uint256",
        "numberOfBytes": "32"
      }
    }
  }
}